{
  "contractName": "Teleplaats",
  "abi": [
    {
      "constant": true,
      "inputs": [],
      "name": "phoneid",
      "outputs": [
        {
          "name": "",
          "type": "uint256"
        }
      ],
      "payable": false,
      "stateMutability": "view",
      "type": "function"
    },
    {
      "constant": true,
      "inputs": [],
      "name": "orderid",
      "outputs": [
        {
          "name": "",
          "type": "uint256"
        }
      ],
      "payable": false,
      "stateMutability": "view",
      "type": "function"
    },
    {
      "constant": true,
      "inputs": [
        {
          "name": "",
          "type": "uint256"
        }
      ],
      "name": "orders",
      "outputs": [
        {
          "name": "ownerUsername",
          "type": "string"
        },
        {
          "name": "ownerAddr",
          "type": "address"
        },
        {
          "name": "isBet",
          "type": "bool"
        },
        {
          "name": "price",
          "type": "uint256"
        },
        {
          "name": "isSold",
          "type": "bool"
        },
        {
          "name": "betUsername",
          "type": "string"
        },
        {
          "name": "betAddr",
          "type": "address"
        },
        {
          "name": "betPrice",
          "type": "uint256"
        }
      ],
      "payable": false,
      "stateMutability": "view",
      "type": "function"
    },
    {
      "constant": true,
      "inputs": [
        {
          "name": "",
          "type": "uint256"
        }
      ],
      "name": "phones",
      "outputs": [
        {
          "name": "IMEI",
          "type": "string"
        },
        {
          "name": "model",
          "type": "string"
        },
        {
          "name": "brand",
          "type": "string"
        },
        {
          "name": "state",
          "type": "string"
        },
        {
          "name": "username",
          "type": "string"
        },
        {
          "name": "ownerAddr",
          "type": "address"
        }
      ],
      "payable": false,
      "stateMutability": "view",
      "type": "function"
    },
    {
      "constant": false,
      "inputs": [
        {
          "name": "sellerName",
          "type": "string"
        },
        {
          "name": "IMEI",
          "type": "string"
        },
        {
          "name": "model",
          "type": "string"
        },
        {
          "name": "brand",
          "type": "string"
        },
        {
          "name": "state",
          "type": "string"
        },
        {
          "name": "price",
          "type": "uint256"
        },
        {
          "name": "isBet",
          "type": "bool"
        }
      ],
      "name": "sellPhone",
      "outputs": [],
      "payable": false,
      "stateMutability": "nonpayable",
      "type": "function"
    },
    {
      "constant": false,
      "inputs": [
        {
          "name": "id",
          "type": "uint256"
        }
      ],
      "name": "removePhone",
      "outputs": [],
      "payable": false,
      "stateMutability": "nonpayable",
      "type": "function"
    },
    {
      "constant": false,
      "inputs": [
        {
          "name": "buyerName",
          "type": "string"
        },
        {
          "name": "id",
          "type": "uint256"
        },
        {
          "name": "price",
          "type": "uint256"
        }
      ],
      "name": "buyOrder",
      "outputs": [],
      "payable": false,
      "stateMutability": "nonpayable",
      "type": "function"
    },
    {
      "constant": false,
      "inputs": [
        {
          "name": "id",
          "type": "uint256"
        }
      ],
      "name": "acceptBet",
      "outputs": [],
      "payable": false,
      "stateMutability": "nonpayable",
      "type": "function"
    }
  ],
  "bytecode": "0x608060405234801561001057600080fd5b50611b34806100206000396000f30060806040526004361061008e576000357c0100000000000000000000000000000000000000000000000000000000900463ffffffff16806328b30d421461009357806354ec9c88146100be578063609406b2146102555780636c0c27e114610280578063a85c38ef146102ad578063c4e0b5d314610449578063f3730653146104c6578063fea533cc1461074f575b600080fd5b34801561009f57600080fd5b506100a861077c565b6040518082815260200191505060405180910390f35b3480156100ca57600080fd5b50610253600480360381019080803590602001908201803590602001908080601f0160208091040260200160405190810160405280939291908181526020018383808284378201915050505050509192919290803590602001908201803590602001908080601f0160208091040260200160405190810160405280939291908181526020018383808284378201915050505050509192919290803590602001908201803590602001908080601f0160208091040260200160405190810160405280939291908181526020018383808284378201915050505050509192919290803590602001908201803590602001908080601f0160208091040260200160405190810160405280939291908181526020018383808284378201915050505050509192919290803590602001908201803590602001908080601f016020809104026020016040519081016040528093929190818152602001838380828437820191505050505050919291929080359060200190929190803515159060200190929190505050610782565b005b34801561026157600080fd5b5061026a6107a5565b6040518082815260200191505060405180910390f35b34801561028c57600080fd5b506102ab600480360381019080803590602001909291905050506107ab565b005b3480156102b957600080fd5b506102d860048036038101908080359060200190929190505050610873565b60405180806020018973ffffffffffffffffffffffffffffffffffffffff1673ffffffffffffffffffffffffffffffffffffffff1681526020018815151515815260200187815260200186151515158152602001806020018573ffffffffffffffffffffffffffffffffffffffff1673ffffffffffffffffffffffffffffffffffffffff16815260200184815260200183810383528b818151815260200191508051906020019080838360005b838110156103a0578082015181840152602081019050610385565b50505050905090810190601f1680156103cd5780820380516001836020036101000a031916815260200191505b50838103825286818151815260200191508051906020019080838360005b838110156104065780820151818401526020810190506103eb565b50505050905090810190601f1680156104335780820380516001836020036101000a031916815260200191505b509a505050505050505050505060405180910390f35b34801561045557600080fd5b506104c4600480360381019080803590602001908201803590602001908080601f01602080910402602001604051908101604052809392919081815260200183838082843782019150505050505091929192908035906020019092919080359060200190929190505050610a45565b005b3480156104d257600080fd5b506104f160048036038101908080359060200190929190505050610bac565b6040518080602001806020018060200180602001806020018773ffffffffffffffffffffffffffffffffffffffff1673ffffffffffffffffffffffffffffffffffffffff16815260200186810386528c818151815260200191508051906020019080838360005b83811015610573578082015181840152602081019050610558565b50505050905090810190601f1680156105a05780820380516001836020036101000a031916815260200191505b5086810385528b818151815260200191508051906020019080838360005b838110156105d95780820151818401526020810190506105be565b50505050905090810190601f1680156106065780820380516001836020036101000a031916815260200191505b5086810384528a818151815260200191508051906020019080838360005b8381101561063f578082015181840152602081019050610624565b50505050905090810190601f16801561066c5780820380516001836020036101000a031916815260200191505b50868103835289818151815260200191508051906020019080838360005b838110156106a557808201518184015260208101905061068a565b50505050905090810190601f1680156106d25780820380516001836020036101000a031916815260200191505b50868103825288818151815260200191508051906020019080838360005b8381101561070b5780820151818401526020810190506106f0565b50505050905090810190601f1680156107385780820380516001836020036101000a031916815260200191505b509b50505050505050505050505060405180910390f35b34801561075b57600080fd5b5061077a60048036038101908080359060200190929190505050610f00565b005b60025481565b61078f8787878787610ffe565b61079c6002548383611156565b50505050505050565b60035481565b3373ffffffffffffffffffffffffffffffffffffffff166001600083815260200190815260200160002060010160009054906101000a900473ffffffffffffffffffffffffffffffffffffffff1673ffffffffffffffffffffffffffffffffffffffff1614151561081b57600080fd5b6001600082815260200190815260200160002060010160149054906101000a900460ff168015610861575060006001600083815260200190815260200160002060060154115b156108705761086f8161174b565b5b50565b6001602052806000526040600020600091509050806000018054600181600116156101000203166002900480601f01602080910402602001604051908101604052809291908181526020018280546001816001161561010002031660029004801561091f5780601f106108f45761010080835404028352916020019161091f565b820191906000526020600020905b81548152906001019060200180831161090257829003601f168201915b5050505050908060010160009054906101000a900473ffffffffffffffffffffffffffffffffffffffff16908060010160149054906101000a900460ff16908060020154908060030160009054906101000a900460ff1690806004018054600181600116156101000203166002900480601f016020809104026020016040519081016040528092919081815260200182805460018160011615610100020316600290048015610a0f5780601f106109e457610100808354040283529160200191610a0f565b820191906000526020600020905b8154815290600101906020018083116109f257829003601f168201915b5050505050908060050160009054906101000a900473ffffffffffffffffffffffffffffffffffffffff16908060060154905088565b3373ffffffffffffffffffffffffffffffffffffffff166001600084815260200190815260200160002060010160009054906101000a900473ffffffffffffffffffffffffffffffffffffffff1673ffffffffffffffffffffffffffffffffffffffff1614151515610ab657600080fd5b82600160008481526020019081526020016000206004019080519060200190610ae0929190611851565b50336001600084815260200190815260200160002060050160006101000a81548173ffffffffffffffffffffffffffffffffffffffff021916908373ffffffffffffffffffffffffffffffffffffffff16021790555080600160008481526020019081526020016000206006018190555060016000838152602001908152602001600020600201548110158015610b9857506001600083815260200190815260200160002060010160149054906101000a900460ff16155b15610ba757610ba68261174b565b5b505050565b6000602052806000526040600020600091509050806000018054600181600116156101000203166002900480601f016020809104026020016040519081016040528092919081815260200182805460018160011615610100020316600290048015610c585780601f10610c2d57610100808354040283529160200191610c58565b820191906000526020600020905b815481529060010190602001808311610c3b57829003601f168201915b505050505090806001018054600181600116156101000203166002900480601f016020809104026020016040519081016040528092919081815260200182805460018160011615610100020316600290048015610cf65780601f10610ccb57610100808354040283529160200191610cf6565b820191906000526020600020905b815481529060010190602001808311610cd957829003601f168201915b505050505090806002018054600181600116156101000203166002900480601f016020809104026020016040519081016040528092919081815260200182805460018160011615610100020316600290048015610d945780601f10610d6957610100808354040283529160200191610d94565b820191906000526020600020905b815481529060010190602001808311610d7757829003601f168201915b505050505090806003018054600181600116156101000203166002900480601f016020809104026020016040519081016040528092919081815260200182805460018160011615610100020316600290048015610e325780601f10610e0757610100808354040283529160200191610e32565b820191906000526020600020905b815481529060010190602001808311610e1557829003601f168201915b505050505090806004018054600181600116156101000203166002900480601f016020809104026020016040519081016040528092919081815260200182805460018160011615610100020316600290048015610ed05780601f10610ea557610100808354040283529160200191610ed0565b820191906000526020600020905b815481529060010190602001808311610eb357829003601f168201915b5050505050908060050160009054906101000a900473ffffffffffffffffffffffffffffffffffffffff16905086565b3373ffffffffffffffffffffffffffffffffffffffff1660008083815260200190815260200160002060050160009054906101000a900473ffffffffffffffffffffffffffffffffffffffff1673ffffffffffffffffffffffffffffffffffffffff16141515610f6f57600080fd5b60008082815260200190815260200160002060008082016000610f9291906118d1565b600182016000610fa291906118d1565b600282016000610fb291906118d1565b600382016000610fc291906118d1565b600482016000610fd291906118d1565b6005820160006101000a81549073ffffffffffffffffffffffffffffffffffffffff0219169055505050565b611006611919565b60c0604051908101604052808681526020018581526020018481526020018381526020018781526020013373ffffffffffffffffffffffffffffffffffffffff168152509050600260008154809291906001019190505550806000806002548152602001908152602001600020600082015181600001908051906020019061108f929190611966565b5060208201518160010190805190602001906110ac929190611966565b5060408201518160020190805190602001906110c9929190611966565b5060608201518160030190805190602001906110e6929190611966565b506080820151816004019080519060200190611103929190611966565b5060a08201518160050160006101000a81548173ffffffffffffffffffffffffffffffffffffffff021916908373ffffffffffffffffffffffffffffffffffffffff160217905550905050505050505050565b61115e611919565b6111666119e6565b3373ffffffffffffffffffffffffffffffffffffffff1660008087815260200190815260200160002060050160009054906101000a900473ffffffffffffffffffffffffffffffffffffffff1673ffffffffffffffffffffffffffffffffffffffff161415156111d557600080fd5b60008086815260200190815260200160002060c06040519081016040529081600082018054600181600116156101000203166002900480601f01602080910402602001604051908101604052809291908181526020018280546001816001161561010002031660029004801561128c5780601f106112615761010080835404028352916020019161128c565b820191906000526020600020905b81548152906001019060200180831161126f57829003601f168201915b50505050508152602001600182018054600181600116156101000203166002900480601f01602080910402602001604051908101604052809291908181526020018280546001816001161561010002031660029004801561132e5780601f106113035761010080835404028352916020019161132e565b820191906000526020600020905b81548152906001019060200180831161131157829003601f168201915b50505050508152602001600282018054600181600116156101000203166002900480601f0160208091040260200160405190810160405280929190818152602001828054600181600116156101000203166002900480156113d05780601f106113a5576101008083540402835291602001916113d0565b820191906000526020600020905b8154815290600101906020018083116113b357829003601f168201915b50505050508152602001600382018054600181600116156101000203166002900480601f0160208091040260200160405190810160405280929190818152602001828054600181600116156101000203166002900480156114725780601f1061144757610100808354040283529160200191611472565b820191906000526020600020905b81548152906001019060200180831161145557829003601f168201915b50505050508152602001600482018054600181600116156101000203166002900480601f0160208091040260200160405190810160405280929190818152602001828054600181600116156101000203166002900480156115145780601f106114e957610100808354040283529160200191611514565b820191906000526020600020905b8154815290600101906020018083116114f757829003601f168201915b505050505081526020016005820160009054906101000a900473ffffffffffffffffffffffffffffffffffffffff1673ffffffffffffffffffffffffffffffffffffffff1673ffffffffffffffffffffffffffffffffffffffff1681525050915061010060405190810160405280836080015181526020018360a0015173ffffffffffffffffffffffffffffffffffffffff168152602001841515815260200185815260200160001515815260200160206040519081016040528060008152508152602001600073ffffffffffffffffffffffffffffffffffffffff16815260200160008152509050600360008154809291906001019190505550806001600060035481526020019081526020016000206000820151816000019080519060200190611641929190611966565b5060208201518160010160006101000a81548173ffffffffffffffffffffffffffffffffffffffff021916908373ffffffffffffffffffffffffffffffffffffffff16021790555060408201518160010160146101000a81548160ff0219169083151502179055506060820151816002015560808201518160030160006101000a81548160ff02191690831515021790555060a08201518160040190805190602001906116ef929190611966565b5060c08201518160050160006101000a81548173ffffffffffffffffffffffffffffffffffffffff021916908373ffffffffffffffffffffffffffffffffffffffff16021790555060e082015181600601559050505050505050565b600160008281526020019081526020016000206004016000808381526020019081526020016000206004019080546001816001161561010002031660029004611795929190611a5c565b506001600082815260200190815260200160002060050160009054906101000a900473ffffffffffffffffffffffffffffffffffffffff1660008083815260200190815260200160002060050160006101000a81548173ffffffffffffffffffffffffffffffffffffffff021916908373ffffffffffffffffffffffffffffffffffffffff160217905550600180600083815260200190815260200160002060030160006101000a81548160ff02191690831515021790555050565b828054600181600116156101000203166002900490600052602060002090601f016020900481019282601f1061189257805160ff19168380011785556118c0565b828001600101855582156118c0579182015b828111156118bf5782518255916020019190600101906118a4565b5b5090506118cd9190611ae3565b5090565b50805460018160011615610100020316600290046000825580601f106118f75750611916565b601f0160209004906000526020600020908101906119159190611ae3565b5b50565b60c0604051908101604052806060815260200160608152602001606081526020016060815260200160608152602001600073ffffffffffffffffffffffffffffffffffffffff1681525090565b828054600181600116156101000203166002900490600052602060002090601f016020900481019282601f106119a757805160ff19168380011785556119d5565b828001600101855582156119d5579182015b828111156119d45782518255916020019190600101906119b9565b5b5090506119e29190611ae3565b5090565b6101006040519081016040528060608152602001600073ffffffffffffffffffffffffffffffffffffffff1681526020016000151581526020016000815260200160001515815260200160608152602001600073ffffffffffffffffffffffffffffffffffffffff168152602001600081525090565b828054600181600116156101000203166002900490600052602060002090601f016020900481019282601f10611a955780548555611ad2565b82800160010185558215611ad257600052602060002091601f016020900482015b82811115611ad1578254825591600101919060010190611ab6565b5b509050611adf9190611ae3565b5090565b611b0591905b80821115611b01576000816000905550600101611ae9565b5090565b905600a165627a7a723058203542e19cafabdbd13a70dca68532b6d29993764769901bf28f80799bd43baa190029",
  "source": "pragma solidity ^0.4.23;\r\n\r\ncontract Teleplaats{\r\n    mapping (uint => Phone) public phones;\r\n    mapping (uint => Order) public orders;\r\n\r\n    uint public phoneid;\r\n    uint public orderid;\r\n\r\n    struct Phone {\r\n        string IMEI;\r\n        string model;\r\n        string brand;\r\n        string state;\r\n        string username;\r\n        address ownerAddr;\r\n    }\r\n\r\n    struct User{\r\n        string username;\r\n        address userAddr;\r\n    }\r\n\r\n    struct Bet{\r\n        //User user; User Variables under here\r\n        string username;\r\n        address userAddr;\r\n        uint price;\r\n        bool isBet;\r\n    }\r\n\r\n    struct Order{\r\n        //Phone phone; Phone variables under here\r\n        //User owner;\r\n        string ownerUsername;\r\n        address ownerAddr;\r\n        bool isBet;\r\n        uint price;\r\n        bool isSold;\r\n        //Bet bet; Bet Variables under here\r\n        string betUsername;\r\n        address betAddr;\r\n        uint betPrice;\r\n    }\r\n\r\n    function sellPhone(string sellerName, string IMEI, string model, string brand, string state, uint price, bool isBet) public{\r\n        addPhone(sellerName, IMEI, model, brand, state);\r\n        addOrder(phoneid, price, isBet);\r\n    }\r\n\r\n    function addPhone(string sellerName, string IMEI, string model, string brand, string state) private{\r\n        Phone memory phone = Phone(IMEI, model, brand, state, sellerName, msg.sender);\r\n\r\n        phoneid++;\r\n\r\n        phones[phoneid] = phone;\r\n    }\r\n\r\n    function removePhone(uint id) public{\r\n        require(phones[id].ownerAddr == msg.sender);\r\n        delete phones[id];\r\n    }\r\n\r\n    function addOrder(uint id, uint price, bool isBet) private {\r\n        require(phones[id].ownerAddr == msg.sender);\r\n\r\n        Phone memory phone = phones[id];\r\n\r\n        //Bet memory placeholderBet;\r\n\r\n        //User memory user = User(phone.username, phone.ownerAddr);\r\n\r\n        Order memory order = Order(phone.username, phone.ownerAddr, isBet, price, false, \"\", address(0), 0);\r\n\r\n        orderid++;\r\n\r\n        orders[orderid] = order;\r\n    }\r\n\r\n    function buyOrder(string buyerName, uint id, uint price) public {\r\n        require(orders[id].ownerAddr != msg.sender);\r\n\r\n        //User memory buyer = User(buyerName, msg.sender);\r\n        //Bet memory bet = Bet(buyerName, msg.sender, price, orders[id].isBet);\r\n        orders[id].betUsername = buyerName;\r\n        orders[id].betAddr = msg.sender;\r\n        orders[id].betPrice = price;\r\n\r\n\r\n        if(price >= orders[id].price && !orders[id].isBet){\r\n            changeOwner(id);\r\n        }\r\n    }\r\n\r\n    function changeOwner(uint id) private{\r\n        phones[id].username = orders[id].betUsername;\r\n        phones[id].ownerAddr = orders[id].betAddr;\r\n        orders[id].isSold = true;\r\n    }\r\n\r\n    function acceptBet(uint id) public{\r\n        require(orders[id].ownerAddr == msg.sender);\r\n\r\n        if(orders[id].isBet && orders[id].betPrice > 0){\r\n            changeOwner(id);\r\n        }\r\n    }\r\n}",
  "sourcePath": "C:\\Users\\justi\\Desktop\\Teleplaats\\contracts\\Teleplaats.sol",
  "compiler": {
    "name": "solc",
    "version": "0.4.24+commit.e67f0147.Emscripten.clang"
  },
  "schemaVersion": "2.0.1",
  "updatedAt": "2019-01-10T09:56:08.731Z"
}