{
  "contractName": "Teleplaats",
  "abi": [
    {
      "constant": true,
      "inputs": [],
      "name": "seller",
      "outputs": [
        {
          "name": "",
          "type": "address"
        }
      ],
      "payable": false,
      "stateMutability": "view",
      "type": "function"
    },
    {
      "constant": true,
      "inputs": [],
      "name": "phoneid",
      "outputs": [
        {
          "name": "",
          "type": "uint256"
        }
      ],
      "payable": false,
      "stateMutability": "view",
      "type": "function"
    },
    {
      "constant": true,
      "inputs": [],
      "name": "buyerS",
      "outputs": [
        {
          "name": "username",
          "type": "string"
        },
        {
          "name": "buyerAddr",
          "type": "address"
        }
      ],
      "payable": false,
      "stateMutability": "view",
      "type": "function"
    },
    {
      "constant": true,
      "inputs": [],
      "name": "orderid",
      "outputs": [
        {
          "name": "",
          "type": "uint256"
        }
      ],
      "payable": false,
      "stateMutability": "view",
      "type": "function"
    },
    {
      "constant": true,
      "inputs": [],
      "name": "buyer",
      "outputs": [
        {
          "name": "",
          "type": "address"
        }
      ],
      "payable": false,
      "stateMutability": "view",
      "type": "function"
    },
    {
      "constant": true,
      "inputs": [],
      "name": "owner",
      "outputs": [
        {
          "name": "",
          "type": "address"
        }
      ],
      "payable": false,
      "stateMutability": "view",
      "type": "function"
    },
    {
      "constant": true,
      "inputs": [],
      "name": "sellerS",
      "outputs": [
        {
          "name": "username",
          "type": "string"
        },
        {
          "name": "sellerAddr",
          "type": "address"
        }
      ],
      "payable": false,
      "stateMutability": "view",
      "type": "function"
    },
    {
      "constant": true,
      "inputs": [
        {
          "name": "",
          "type": "uint256"
        }
      ],
      "name": "orders",
      "outputs": [
        {
          "components": [
            {
              "name": "IMEI",
              "type": "string"
            },
            {
              "name": "model",
              "type": "string"
            },
            {
              "name": "brand",
              "type": "string"
            },
            {
              "name": "state",
              "type": "string"
            },
            {
              "name": "owner",
              "type": "address"
            },
            {
              "name": "info",
              "type": "string"
            }
          ],
          "name": "phone",
          "type": "tuple"
        },
        {
          "components": [
            {
              "name": "username",
              "type": "string"
            },
            {
              "name": "sellerAddr",
              "type": "address"
            }
          ],
          "name": "user",
          "type": "tuple"
        },
        {
          "name": "isBet",
          "type": "bool"
        },
        {
          "name": "price",
          "type": "uint256"
        },
        {
          "name": "isSold",
          "type": "bool"
        },
        {
          "components": [
            {
              "components": [
                {
                  "name": "username",
                  "type": "string"
                },
                {
                  "name": "buyerAddr",
                  "type": "address"
                }
              ],
              "name": "user",
              "type": "tuple"
            },
            {
              "name": "price",
              "type": "uint256"
            },
            {
              "name": "isBet",
              "type": "bool"
            }
          ],
          "name": "bet",
          "type": "tuple"
        },
        {
          "name": "highestBet",
          "type": "uint256"
        }
      ],
      "payable": false,
      "stateMutability": "view",
      "type": "function"
    },
    {
      "constant": true,
      "inputs": [
        {
          "name": "",
          "type": "uint256"
        }
      ],
      "name": "phones",
      "outputs": [
        {
          "name": "IMEI",
          "type": "string"
        },
        {
          "name": "model",
          "type": "string"
        },
        {
          "name": "brand",
          "type": "string"
        },
        {
          "name": "state",
          "type": "string"
        },
        {
          "name": "owner",
          "type": "address"
        },
        {
          "name": "info",
          "type": "string"
        }
      ],
      "payable": false,
      "stateMutability": "view",
      "type": "function"
    },
    {
      "inputs": [
        {
          "name": "sellerName",
          "type": "string"
        }
      ],
      "payable": false,
      "stateMutability": "nonpayable",
      "type": "constructor"
    },
    {
      "constant": false,
      "inputs": [
        {
          "name": "IMEI",
          "type": "string"
        },
        {
          "name": "model",
          "type": "string"
        },
        {
          "name": "brand",
          "type": "string"
        },
        {
          "name": "state",
          "type": "string"
        },
        {
          "name": "info",
          "type": "string"
        }
      ],
      "name": "addPhone",
      "outputs": [],
      "payable": false,
      "stateMutability": "nonpayable",
      "type": "function"
    },
    {
      "constant": false,
      "inputs": [
        {
          "name": "id",
          "type": "uint256"
        }
      ],
      "name": "removePhone",
      "outputs": [],
      "payable": false,
      "stateMutability": "nonpayable",
      "type": "function"
    },
    {
      "constant": false,
      "inputs": [
        {
          "name": "id",
          "type": "uint256"
        },
        {
          "name": "price",
          "type": "uint256"
        }
      ],
      "name": "addOrder",
      "outputs": [],
      "payable": false,
      "stateMutability": "nonpayable",
      "type": "function"
    },
    {
      "constant": false,
      "inputs": [
        {
          "name": "buyerName",
          "type": "string"
        },
        {
          "name": "id",
          "type": "uint256"
        },
        {
          "name": "price",
          "type": "uint256"
        }
      ],
      "name": "buyOrder",
      "outputs": [],
      "payable": false,
      "stateMutability": "nonpayable",
      "type": "function"
    },
    {
      "constant": false,
      "inputs": [
        {
          "name": "id",
          "type": "uint256"
        }
      ],
      "name": "changeOwner",
      "outputs": [],
      "payable": false,
      "stateMutability": "nonpayable",
      "type": "function"
    }
  ],
  "bytecode": "0x60806040523480156200001157600080fd5b5060405162002802380380620028028339810180604052810190808051820192919050505033600460006101000a81548173ffffffffffffffffffffffffffffffffffffffff021916908373ffffffffffffffffffffffffffffffffffffffff1602179055506040805190810160405280828152602001600460009054906101000a900473ffffffffffffffffffffffffffffffffffffffff1673ffffffffffffffffffffffffffffffffffffffff1681525060076000820151816000019080519060200190620000e492919062000177565b5060208201518160010160006101000a81548173ffffffffffffffffffffffffffffffffffffffff021916908373ffffffffffffffffffffffffffffffffffffffff16021790555090505033600660006101000a81548173ffffffffffffffffffffffffffffffffffffffff021916908373ffffffffffffffffffffffffffffffffffffffff1602179055505062000226565b828054600181600116156101000203166002900490600052602060002090601f016020900481019282601f10620001ba57805160ff1916838001178555620001eb565b82800160010185558215620001eb579182015b82811115620001ea578251825591602001919060010190620001cd565b5b509050620001fa9190620001fe565b5090565b6200022391905b808211156200021f57600081600090555060010162000205565b5090565b90565b6125cc80620002366000396000f3006080604052600436106100d0576000357c0100000000000000000000000000000000000000000000000000000000900463ffffffff16806308551a53146100d557806328b30d421461012c5780635b6fce1214610157578063609406b21461021a5780637150d8ae146102455780638da5cb5b1461029c578063924c19f7146102f3578063a4cb5c8014610320578063a7166999146104a1578063a85c38ef14610564578063c4e0b5d3146105d7578063f28db6c414610654578063f37306531461068b578063fea533cc14610914575b600080fd5b3480156100e157600080fd5b506100ea610941565b604051808273ffffffffffffffffffffffffffffffffffffffff1673ffffffffffffffffffffffffffffffffffffffff16815260200191505060405180910390f35b34801561013857600080fd5b50610141610967565b6040518082815260200191505060405180910390f35b34801561016357600080fd5b5061016c61096d565b60405180806020018373ffffffffffffffffffffffffffffffffffffffff1673ffffffffffffffffffffffffffffffffffffffff168152602001828103825284818151815260200191508051906020019080838360005b838110156101de5780820151818401526020810190506101c3565b50505050905090810190601f16801561020b5780820380516001836020036101000a031916815260200191505b50935050505060405180910390f35b34801561022657600080fd5b5061022f610a37565b6040518082815260200191505060405180910390f35b34801561025157600080fd5b5061025a610a3d565b604051808273ffffffffffffffffffffffffffffffffffffffff1673ffffffffffffffffffffffffffffffffffffffff16815260200191505060405180910390f35b3480156102a857600080fd5b506102b1610a63565b604051808273ffffffffffffffffffffffffffffffffffffffff1673ffffffffffffffffffffffffffffffffffffffff16815260200191505060405180910390f35b3480156102ff57600080fd5b5061031e60048036038101908080359060200190929190505050610a89565b005b34801561032c57600080fd5b5061049f600480360381019080803590602001908201803590602001908080601f0160208091040260200160405190810160405280939291908181526020018383808284378201915050505050509192919290803590602001908201803590602001908080601f0160208091040260200160405190810160405280939291908181526020018383808284378201915050505050509192919290803590602001908201803590602001908080601f0160208091040260200160405190810160405280939291908181526020018383808284378201915050505050509192919290803590602001908201803590602001908080601f0160208091040260200160405190810160405280939291908181526020018383808284378201915050505050509192919290803590602001908201803590602001908080601f0160208091040260200160405190810160405280939291908181526020018383808284378201915050505050509192919290505050610b5e565b005b3480156104ad57600080fd5b506104b6610d34565b60405180806020018373ffffffffffffffffffffffffffffffffffffffff1673ffffffffffffffffffffffffffffffffffffffff168152602001828103825284818151815260200191508051906020019080838360005b8381101561052857808201518184015260208101905061050d565b50505050905090810190601f1680156105555780820380516001836020036101000a031916815260200191505b50935050505060405180910390f35b34801561057057600080fd5b5061058f60048036038101908080359060200190929190505050610dfe565b60405180888152602001878152602001861515151581526020018581526020018415151515815260200183815260200182815260200197505050505050505060405180910390f35b3480156105e357600080fd5b50610652600480360381019080803590602001908201803590602001908080601f01602080910402602001604051908101604052809392919081815260200183838082843782019150505050505091929192908035906020019092919080359060200190929190505050611423565b005b34801561066057600080fd5b50610689600480360381019080803590602001909291908035906020019092919050505061175d565b005b34801561069757600080fd5b506106b660048036038101908080359060200190929190505050611f2d565b60405180806020018060200180602001806020018773ffffffffffffffffffffffffffffffffffffffff1673ffffffffffffffffffffffffffffffffffffffff1681526020018060200186810386528c818151815260200191508051906020019080838360005b8381101561073857808201518184015260208101905061071d565b50505050905090810190601f1680156107655780820380516001836020036101000a031916815260200191505b5086810385528b818151815260200191508051906020019080838360005b8381101561079e578082015181840152602081019050610783565b50505050905090810190601f1680156107cb5780820380516001836020036101000a031916815260200191505b5086810384528a818151815260200191508051906020019080838360005b838110156108045780820151818401526020810190506107e9565b50505050905090810190601f1680156108315780820380516001836020036101000a031916815260200191505b50868103835289818151815260200191508051906020019080838360005b8381101561086a57808201518184015260208101905061084f565b50505050905090810190601f1680156108975780820380516001836020036101000a031916815260200191505b50868103825287818151815260200191508051906020019080838360005b838110156108d05780820151818401526020810190506108b5565b50505050905090810190601f1680156108fd5780820380516001836020036101000a031916815260200191505b509b50505050505050505050505060405180910390f35b34801561092057600080fd5b5061093f60048036038101908080359060200190929190505050612281565b005b600460009054906101000a900473ffffffffffffffffffffffffffffffffffffffff1681565b60025481565b6009806000018054600181600116156101000203166002900480601f016020809104026020016040519081016040528092919081815260200182805460018160011615610100020316600290048015610a075780601f106109dc57610100808354040283529160200191610a07565b820191906000526020600020905b8154815290600101906020018083116109ea57829003601f168201915b5050505050908060010160009054906101000a900473ffffffffffffffffffffffffffffffffffffffff16905082565b60035481565b600560009054906101000a900473ffffffffffffffffffffffffffffffffffffffff1681565b600660009054906101000a900473ffffffffffffffffffffffffffffffffffffffff1681565b3373ffffffffffffffffffffffffffffffffffffffff16600560009054906101000a900473ffffffffffffffffffffffffffffffffffffffff1673ffffffffffffffffffffffffffffffffffffffff16141515610ae557600080fd5b600560009054906101000a900473ffffffffffffffffffffffffffffffffffffffff1660008083815260200190815260200160002060040160006101000a81548173ffffffffffffffffffffffffffffffffffffffff021916908373ffffffffffffffffffffffffffffffffffffffff16021790555050565b610b66612310565b3373ffffffffffffffffffffffffffffffffffffffff16600460009054906101000a900473ffffffffffffffffffffffffffffffffffffffff1673ffffffffffffffffffffffffffffffffffffffff16141515610bc257600080fd5b60c060405190810160405280878152602001868152602001858152602001848152602001600460009054906101000a900473ffffffffffffffffffffffffffffffffffffffff1673ffffffffffffffffffffffffffffffffffffffff1681526020018381525090506002600081548092919060010191905055508060008060025481526020019081526020016000206000820151816000019080519060200190610c6d92919061235d565b506020820151816001019080519060200190610c8a92919061235d565b506040820151816002019080519060200190610ca792919061235d565b506060820151816003019080519060200190610cc492919061235d565b5060808201518160040160006101000a81548173ffffffffffffffffffffffffffffffffffffffff021916908373ffffffffffffffffffffffffffffffffffffffff16021790555060a0820151816005019080519060200190610d2892919061235d565b50905050505050505050565b6007806000018054600181600116156101000203166002900480601f016020809104026020016040519081016040528092919081815260200182805460018160011615610100020316600290048015610dce5780601f10610da357610100808354040283529160200191610dce565b820191906000526020600020905b815481529060010190602001808311610db157829003601f168201915b5050505050908060010160009054906101000a900473ffffffffffffffffffffffffffffffffffffffff16905082565b60016020528060005260406000206000915090508060000160c06040519081016040529081600082018054600181600116156101000203166002900480601f016020809104026020016040519081016040528092919081815260200182805460018160011615610100020316600290048015610ebb5780601f10610e9057610100808354040283529160200191610ebb565b820191906000526020600020905b815481529060010190602001808311610e9e57829003601f168201915b50505050508152602001600182018054600181600116156101000203166002900480601f016020809104026020016040519081016040528092919081815260200182805460018160011615610100020316600290048015610f5d5780601f10610f3257610100808354040283529160200191610f5d565b820191906000526020600020905b815481529060010190602001808311610f4057829003601f168201915b50505050508152602001600282018054600181600116156101000203166002900480601f016020809104026020016040519081016040528092919081815260200182805460018160011615610100020316600290048015610fff5780601f10610fd457610100808354040283529160200191610fff565b820191906000526020600020905b815481529060010190602001808311610fe257829003601f168201915b50505050508152602001600382018054600181600116156101000203166002900480601f0160208091040260200160405190810160405280929190818152602001828054600181600116156101000203166002900480156110a15780601f10611076576101008083540402835291602001916110a1565b820191906000526020600020905b81548152906001019060200180831161108457829003601f168201915b505050505081526020016004820160009054906101000a900473ffffffffffffffffffffffffffffffffffffffff1673ffffffffffffffffffffffffffffffffffffffff1673ffffffffffffffffffffffffffffffffffffffff168152602001600582018054600181600116156101000203166002900480601f0160208091040260200160405190810160405280929190818152602001828054600181600116156101000203166002900480156111995780601f1061116e57610100808354040283529160200191611199565b820191906000526020600020905b81548152906001019060200180831161117c57829003601f168201915b5050505050815250509080600601604080519081016040529081600082018054600181600116156101000203166002900480601f01602080910402602001604051908101604052809291908181526020018280546001816001161561010002031660029004801561124b5780601f106112205761010080835404028352916020019161124b565b820191906000526020600020905b81548152906001019060200180831161122e57829003601f168201915b505050505081526020016001820160009054906101000a900473ffffffffffffffffffffffffffffffffffffffff1673ffffffffffffffffffffffffffffffffffffffff1673ffffffffffffffffffffffffffffffffffffffff1681525050908060080160009054906101000a900460ff169080600901549080600a0160009054906101000a900460ff169080600b016060604051908101604052908160008201604080519081016040529081600082018054600181600116156101000203166002900480601f0160208091040260200160405190810160405280929190818152602001828054600181600116156101000203166002900480156113905780601f1061136557610100808354040283529160200191611390565b820191906000526020600020905b81548152906001019060200180831161137357829003601f168201915b505050505081526020016001820160009054906101000a900473ffffffffffffffffffffffffffffffffffffffff1673ffffffffffffffffffffffffffffffffffffffff1673ffffffffffffffffffffffffffffffffffffffff16815250508152602001600282015481526020016003820160009054906101000a900460ff1615151515815250509080600f0154905087565b61142b6123dd565b3373ffffffffffffffffffffffffffffffffffffffff16600460009054906101000a900473ffffffffffffffffffffffffffffffffffffffff1673ffffffffffffffffffffffffffffffffffffffff161415151561148857600080fd5b33600560006101000a81548173ffffffffffffffffffffffffffffffffffffffff021916908373ffffffffffffffffffffffffffffffffffffffff1602179055506040805190810160405280858152602001600560009054906101000a900473ffffffffffffffffffffffffffffffffffffffff1673ffffffffffffffffffffffffffffffffffffffff168152506009600082015181600001908051906020019061153492919061235d565b5060208201518160010160006101000a81548173ffffffffffffffffffffffffffffffffffffffff021916908373ffffffffffffffffffffffffffffffffffffffff1602179055509050506060604051908101604052806009604080519081016040529081600082018054600181600116156101000203166002900480601f0160208091040260200160405190810160405280929190818152602001828054600181600116156101000203166002900480156116315780601f1061160657610100808354040283529160200191611631565b820191906000526020600020905b81548152906001019060200180831161161457829003601f168201915b505050505081526020016001820160009054906101000a900473ffffffffffffffffffffffffffffffffffffffff1673ffffffffffffffffffffffffffffffffffffffff1673ffffffffffffffffffffffffffffffffffffffff168152505081526020018381526020016000151581525090508060016000858152602001908152602001600020600b0160008201518160000160008201518160000190805190602001906116e092919061235d565b5060208201518160010160006101000a81548173ffffffffffffffffffffffffffffffffffffffff021916908373ffffffffffffffffffffffffffffffffffffffff16021790555050506020820151816002015560408201518160030160006101000a81548160ff02191690831515021790555090505050505050565b611765612310565b61176d6123dd565b611775612407565b3373ffffffffffffffffffffffffffffffffffffffff16600460009054906101000a900473ffffffffffffffffffffffffffffffffffffffff1673ffffffffffffffffffffffffffffffffffffffff161415156117d157600080fd5b60008086815260200190815260200160002060c06040519081016040529081600082018054600181600116156101000203166002900480601f0160208091040260200160405190810160405280929190818152602001828054600181600116156101000203166002900480156118885780601f1061185d57610100808354040283529160200191611888565b820191906000526020600020905b81548152906001019060200180831161186b57829003601f168201915b50505050508152602001600182018054600181600116156101000203166002900480601f01602080910402602001604051908101604052809291908181526020018280546001816001161561010002031660029004801561192a5780601f106118ff5761010080835404028352916020019161192a565b820191906000526020600020905b81548152906001019060200180831161190d57829003601f168201915b50505050508152602001600282018054600181600116156101000203166002900480601f0160208091040260200160405190810160405280929190818152602001828054600181600116156101000203166002900480156119cc5780601f106119a1576101008083540402835291602001916119cc565b820191906000526020600020905b8154815290600101906020018083116119af57829003601f168201915b50505050508152602001600382018054600181600116156101000203166002900480601f016020809104026020016040519081016040528092919081815260200182805460018160011615610100020316600290048015611a6e5780601f10611a4357610100808354040283529160200191611a6e565b820191906000526020600020905b815481529060010190602001808311611a5157829003601f168201915b505050505081526020016004820160009054906101000a900473ffffffffffffffffffffffffffffffffffffffff1673ffffffffffffffffffffffffffffffffffffffff1673ffffffffffffffffffffffffffffffffffffffff168152602001600582018054600181600116156101000203166002900480601f016020809104026020016040519081016040528092919081815260200182805460018160011615610100020316600290048015611b665780601f10611b3b57610100808354040283529160200191611b66565b820191906000526020600020905b815481529060010190602001808311611b4957829003601f168201915b505050505081525050925060e0604051908101604052808481526020016007604080519081016040529081600082018054600181600116156101000203166002900480601f016020809104026020016040519081016040528092919081815260200182805460018160011615610100020316600290048015611c295780601f10611bfe57610100808354040283529160200191611c29565b820191906000526020600020905b815481529060010190602001808311611c0c57829003601f168201915b505050505081526020016001820160009054906101000a900473ffffffffffffffffffffffffffffffffffffffff1673ffffffffffffffffffffffffffffffffffffffff1673ffffffffffffffffffffffffffffffffffffffff16815250508152602001600015158152602001858152602001600015158152602001838152602001858152509050600360008154809291906001019190505550806001600060035481526020019081526020016000206000820151816000016000820151816000019080519060200190611cfe92919061235d565b506020820151816001019080519060200190611d1b92919061235d565b506040820151816002019080519060200190611d3892919061235d565b506060820151816003019080519060200190611d5592919061235d565b5060808201518160040160006101000a81548173ffffffffffffffffffffffffffffffffffffffff021916908373ffffffffffffffffffffffffffffffffffffffff16021790555060a0820151816005019080519060200190611db992919061235d565b5050506020820151816006016000820151816000019080519060200190611de192919061235d565b5060208201518160010160006101000a81548173ffffffffffffffffffffffffffffffffffffffff021916908373ffffffffffffffffffffffffffffffffffffffff160217905550505060408201518160080160006101000a81548160ff02191690831515021790555060608201518160090155608082015181600a0160006101000a81548160ff02191690831515021790555060a082015181600b016000820151816000016000820151816000019080519060200190611ea392919061235d565b5060208201518160010160006101000a81548173ffffffffffffffffffffffffffffffffffffffff021916908373ffffffffffffffffffffffffffffffffffffffff16021790555050506020820151816002015560408201518160030160006101000a81548160ff021916908315150217905550505060c082015181600f01559050505050505050565b6000602052806000526040600020600091509050806000018054600181600116156101000203166002900480601f016020809104026020016040519081016040528092919081815260200182805460018160011615610100020316600290048015611fd95780601f10611fae57610100808354040283529160200191611fd9565b820191906000526020600020905b815481529060010190602001808311611fbc57829003601f168201915b505050505090806001018054600181600116156101000203166002900480601f0160208091040260200160405190810160405280929190818152602001828054600181600116156101000203166002900480156120775780601f1061204c57610100808354040283529160200191612077565b820191906000526020600020905b81548152906001019060200180831161205a57829003601f168201915b505050505090806002018054600181600116156101000203166002900480601f0160208091040260200160405190810160405280929190818152602001828054600181600116156101000203166002900480156121155780601f106120ea57610100808354040283529160200191612115565b820191906000526020600020905b8154815290600101906020018083116120f857829003601f168201915b505050505090806003018054600181600116156101000203166002900480601f0160208091040260200160405190810160405280929190818152602001828054600181600116156101000203166002900480156121b35780601f10612188576101008083540402835291602001916121b3565b820191906000526020600020905b81548152906001019060200180831161219657829003601f168201915b5050505050908060040160009054906101000a900473ffffffffffffffffffffffffffffffffffffffff1690806005018054600181600116156101000203166002900480601f0160208091040260200160405190810160405280929190818152602001828054600181600116156101000203166002900480156122775780601f1061224c57610100808354040283529160200191612277565b820191906000526020600020905b81548152906001019060200180831161225a57829003601f168201915b5050505050905086565b600080828152602001908152602001600020600080820160006122a4919061245c565b6001820160006122b4919061245c565b6002820160006122c4919061245c565b6003820160006122d4919061245c565b6004820160006101000a81549073ffffffffffffffffffffffffffffffffffffffff021916905560058201600061230b919061245c565b505050565b60c06040519081016040528060608152602001606081526020016060815260200160608152602001600073ffffffffffffffffffffffffffffffffffffffff168152602001606081525090565b828054600181600116156101000203166002900490600052602060002090601f016020900481019282601f1061239e57805160ff19168380011785556123cc565b828001600101855582156123cc579182015b828111156123cb5782518255916020019190600101906123b0565b5b5090506123d991906124a4565b5090565b6080604051908101604052806123f16124c9565b8152602001600081526020016000151581525090565b6102006040519081016040528061241c6124f9565b8152602001612429612546565b81526020016000151581526020016000815260200160001515815260200161244f612576565b8152602001600081525090565b50805460018160011615610100020316600290046000825580601f1061248257506124a1565b601f0160209004906000526020600020908101906124a091906124a4565b5b50565b6124c691905b808211156124c25760008160009055506001016124aa565b5090565b90565b604080519081016040528060608152602001600073ffffffffffffffffffffffffffffffffffffffff1681525090565b60c06040519081016040528060608152602001606081526020016060815260200160608152602001600073ffffffffffffffffffffffffffffffffffffffff168152602001606081525090565b604080519081016040528060608152602001600073ffffffffffffffffffffffffffffffffffffffff1681525090565b60806040519081016040528061258a6124c9565b81526020016000815260200160001515815250905600a165627a7a723058205ed97409a9a75c0c084f8949e9b011eb25dc3b449948d80733240625b62b68860029",
  "source": "pragma solidity ^0.4.23;\r\n\r\ncontract Teleplaats{\r\n    mapping (uint => Phone) public phones;\r\n    mapping (uint => Order) public orders;\r\n\r\n    uint public phoneid;\r\n    uint public orderid;\r\n\r\n    struct Phone {\r\n        string IMEI;\r\n        string model;\r\n        string brand;\r\n        string state;\r\n        address owner;\r\n        string info;\r\n    }\r\n\r\n    struct Seller{\r\n        string username;\r\n        address sellerAddr;\r\n        //string zipcode;\r\n        //Phone[] phones;\r\n    }\r\n\r\n    struct Buyer{\r\n        string username;\r\n        address buyerAddr;\r\n        //string zipcode;\r\n        //Phone[] phones;\r\n    }\r\n\r\n    struct Bet{\r\n        Buyer user;\r\n        uint price;\r\n        bool isBet;\r\n    }\r\n\r\n    struct Order{\r\n        Phone phone;\r\n        Seller user;\r\n        bool isBet;\r\n        uint price;\r\n        bool isSold;\r\n        Bet bet;\r\n        uint highestBet;\r\n    }\r\n\r\n    address public seller;\r\n\r\n    address public buyer;\r\n\r\n    address public owner;\r\n\r\n    Seller public sellerS;\r\n\r\n    Buyer public buyerS;\r\n\r\n\r\n    constructor(string sellerName) public {\r\n        seller = msg.sender;\r\n        sellerS = Seller(sellerName, seller);\r\n        owner = msg.sender;\r\n    }\r\n\r\n    function addPhone(string IMEI, string model, string brand, string state, string info) public{\r\n        require(seller == msg.sender);\r\n\r\n        Phone memory phone = Phone(IMEI, model, brand,state, seller, info);\r\n\r\n        phoneid++;\r\n\r\n        phones[phoneid] = phone;\r\n    }\r\n\r\n    function removePhone(uint id) public{\r\n        delete phones[id];\r\n    }\r\n\r\n    function addOrder(uint id, uint price) public{\r\n        require(seller == msg.sender);\r\n\r\n        Phone memory phone = phones[id];\r\n\r\n        Bet memory placeholderBet;\r\n\r\n        Order memory order = Order(phone, sellerS, false, price, false, placeholderBet, price);\r\n\r\n        orderid++;\r\n\r\n        orders[orderid] = order;\r\n    }\r\n\r\n    function buyOrder(string buyerName, uint id, uint price) public {\r\n        require(seller != msg.sender);\r\n        buyer = msg.sender;\r\n        buyerS = Buyer(buyerName, buyer);\r\n\r\n        Bet memory bet = Bet(buyerS, price, false);\r\n\r\n        orders[id].bet = bet;\r\n    }\r\n\r\n    function changeOwner(uint id) public{\r\n        require(buyer == msg.sender);\r\n\r\n        phones[id].owner = buyer;\r\n    }\r\n\r\n}",
  "sourcePath": "C:\\Users\\justi\\Desktop\\Teleplaats\\contracts\\Teleplaats.sol",
  "compiler": {
    "name": "solc",
    "version": "0.4.24+commit.e67f0147.Emscripten.clang"
  },
  "schemaVersion": "2.0.1",
  "updatedAt": "2018-12-13T12:41:43.908Z"
}