{
  "contractName": "Teleplaats",
  "abi": [
    {
      "constant": true,
      "inputs": [],
      "name": "phoneid",
      "outputs": [
        {
          "name": "",
          "type": "uint256"
        }
      ],
      "payable": false,
      "stateMutability": "view",
      "type": "function"
    },
    {
      "constant": true,
      "inputs": [],
      "name": "orderid",
      "outputs": [
        {
          "name": "",
          "type": "uint256"
        }
      ],
      "payable": false,
      "stateMutability": "view",
      "type": "function"
    },
    {
      "constant": true,
      "inputs": [
        {
          "name": "",
          "type": "uint256"
        }
      ],
      "name": "orders",
      "outputs": [
        {
          "name": "ownerUsername",
          "type": "string"
        },
        {
          "name": "ownerAddr",
          "type": "address"
        },
        {
          "name": "isBet",
          "type": "bool"
        },
        {
          "name": "price",
          "type": "uint256"
        },
        {
          "name": "isSold",
          "type": "bool"
        },
        {
          "name": "betUsername",
          "type": "string"
        },
        {
          "name": "betAddr",
          "type": "address"
        },
        {
          "name": "betPrice",
          "type": "uint256"
        }
      ],
      "payable": false,
      "stateMutability": "view",
      "type": "function"
    },
    {
      "constant": true,
      "inputs": [
        {
          "name": "",
          "type": "uint256"
        }
      ],
      "name": "phones",
      "outputs": [
        {
          "name": "IMEI",
          "type": "string"
        },
        {
          "name": "model",
          "type": "string"
        },
        {
          "name": "brand",
          "type": "string"
        },
        {
          "name": "state",
          "type": "string"
        },
        {
          "name": "username",
          "type": "string"
        },
        {
          "name": "ownerAddr",
          "type": "address"
        }
      ],
      "payable": false,
      "stateMutability": "view",
      "type": "function"
    },
    {
      "constant": false,
      "inputs": [
        {
          "name": "sellerName",
          "type": "string"
        },
        {
          "name": "IMEI",
          "type": "string"
        },
        {
          "name": "model",
          "type": "string"
        },
        {
          "name": "brand",
          "type": "string"
        },
        {
          "name": "state",
          "type": "string"
        },
        {
          "name": "price",
          "type": "uint256"
        },
        {
          "name": "isBet",
          "type": "bool"
        }
      ],
      "name": "sellPhone",
      "outputs": [],
      "payable": false,
      "stateMutability": "nonpayable",
      "type": "function"
    },
    {
      "constant": false,
      "inputs": [
        {
          "name": "id",
          "type": "uint256"
        }
      ],
      "name": "removePhone",
      "outputs": [],
      "payable": false,
      "stateMutability": "nonpayable",
      "type": "function"
    },
    {
      "constant": false,
      "inputs": [
        {
          "name": "buyerName",
          "type": "string"
        },
        {
          "name": "id",
          "type": "uint256"
        },
        {
          "name": "price",
          "type": "uint256"
        }
      ],
      "name": "buyOrder",
      "outputs": [],
      "payable": false,
      "stateMutability": "nonpayable",
      "type": "function"
    },
    {
      "constant": false,
      "inputs": [
        {
          "name": "id",
          "type": "uint256"
        }
      ],
      "name": "acceptBet",
      "outputs": [],
      "payable": false,
      "stateMutability": "nonpayable",
      "type": "function"
    }
  ],
  "bytecode": "0x608060405234801561001057600080fd5b50611b53806100206000396000f30060806040526004361061008e576000357c0100000000000000000000000000000000000000000000000000000000900463ffffffff16806328b30d421461009357806354ec9c88146100be578063609406b2146102555780636c0c27e114610280578063a85c38ef146102ad578063c4e0b5d314610449578063f3730653146104c6578063fea533cc1461074f575b600080fd5b34801561009f57600080fd5b506100a861077c565b6040518082815260200191505060405180910390f35b3480156100ca57600080fd5b50610253600480360381019080803590602001908201803590602001908080601f0160208091040260200160405190810160405280939291908181526020018383808284378201915050505050509192919290803590602001908201803590602001908080601f0160208091040260200160405190810160405280939291908181526020018383808284378201915050505050509192919290803590602001908201803590602001908080601f0160208091040260200160405190810160405280939291908181526020018383808284378201915050505050509192919290803590602001908201803590602001908080601f0160208091040260200160405190810160405280939291908181526020018383808284378201915050505050509192919290803590602001908201803590602001908080601f016020809104026020016040519081016040528093929190818152602001838380828437820191505050505050919291929080359060200190929190803515159060200190929190505050610782565b005b34801561026157600080fd5b5061026a6107a5565b6040518082815260200191505060405180910390f35b34801561028c57600080fd5b506102ab600480360381019080803590602001909291905050506107ab565b005b3480156102b957600080fd5b506102d860048036038101908080359060200190929190505050610873565b60405180806020018973ffffffffffffffffffffffffffffffffffffffff1673ffffffffffffffffffffffffffffffffffffffff1681526020018815151515815260200187815260200186151515158152602001806020018573ffffffffffffffffffffffffffffffffffffffff1673ffffffffffffffffffffffffffffffffffffffff16815260200184815260200183810383528b818151815260200191508051906020019080838360005b838110156103a0578082015181840152602081019050610385565b50505050905090810190601f1680156103cd5780820380516001836020036101000a031916815260200191505b50838103825286818151815260200191508051906020019080838360005b838110156104065780820151818401526020810190506103eb565b50505050905090810190601f1680156104335780820380516001836020036101000a031916815260200191505b509a505050505050505050505060405180910390f35b34801561045557600080fd5b506104c4600480360381019080803590602001908201803590602001908080601f01602080910402602001604051908101604052809392919081815260200183838082843782019150505050505091929192908035906020019092919080359060200190929190505050610a45565b005b3480156104d257600080fd5b506104f160048036038101908080359060200190929190505050610bcb565b6040518080602001806020018060200180602001806020018773ffffffffffffffffffffffffffffffffffffffff1673ffffffffffffffffffffffffffffffffffffffff16815260200186810386528c818151815260200191508051906020019080838360005b83811015610573578082015181840152602081019050610558565b50505050905090810190601f1680156105a05780820380516001836020036101000a031916815260200191505b5086810385528b818151815260200191508051906020019080838360005b838110156105d95780820151818401526020810190506105be565b50505050905090810190601f1680156106065780820380516001836020036101000a031916815260200191505b5086810384528a818151815260200191508051906020019080838360005b8381101561063f578082015181840152602081019050610624565b50505050905090810190601f16801561066c5780820380516001836020036101000a031916815260200191505b50868103835289818151815260200191508051906020019080838360005b838110156106a557808201518184015260208101905061068a565b50505050905090810190601f1680156106d25780820380516001836020036101000a031916815260200191505b50868103825288818151815260200191508051906020019080838360005b8381101561070b5780820151818401526020810190506106f0565b50505050905090810190601f1680156107385780820380516001836020036101000a031916815260200191505b509b50505050505050505050505060405180910390f35b34801561075b57600080fd5b5061077a60048036038101908080359060200190929190505050610f1f565b005b60025481565b61078f878787878761101d565b61079c6002548383611175565b50505050505050565b60035481565b3373ffffffffffffffffffffffffffffffffffffffff166001600083815260200190815260200160002060010160009054906101000a900473ffffffffffffffffffffffffffffffffffffffff1673ffffffffffffffffffffffffffffffffffffffff1614151561081b57600080fd5b6001600082815260200190815260200160002060010160149054906101000a900460ff168015610861575060006001600083815260200190815260200160002060060154115b156108705761086f8161176a565b5b50565b6001602052806000526040600020600091509050806000018054600181600116156101000203166002900480601f01602080910402602001604051908101604052809291908181526020018280546001816001161561010002031660029004801561091f5780601f106108f45761010080835404028352916020019161091f565b820191906000526020600020905b81548152906001019060200180831161090257829003601f168201915b5050505050908060010160009054906101000a900473ffffffffffffffffffffffffffffffffffffffff16908060010160149054906101000a900460ff16908060020154908060030160009054906101000a900460ff1690806004018054600181600116156101000203166002900480601f016020809104026020016040519081016040528092919081815260200182805460018160011615610100020316600290048015610a0f5780601f106109e457610100808354040283529160200191610a0f565b820191906000526020600020905b8154815290600101906020018083116109f257829003601f168201915b5050505050908060050160009054906101000a900473ffffffffffffffffffffffffffffffffffffffff16908060060154905088565b3373ffffffffffffffffffffffffffffffffffffffff166001600084815260200190815260200160002060010160009054906101000a900473ffffffffffffffffffffffffffffffffffffffff1673ffffffffffffffffffffffffffffffffffffffff1614151515610ab657600080fd5b6001600083815260200190815260200160002060060154811115610b705782600160008481526020019081526020016000206004019080519060200190610afe929190611870565b50336001600084815260200190815260200160002060050160006101000a81548173ffffffffffffffffffffffffffffffffffffffff021916908373ffffffffffffffffffffffffffffffffffffffff1602179055508060016000848152602001908152602001600020600601819055505b60016000838152602001908152602001600020600201548110158015610bb757506001600083815260200190815260200160002060010160149054906101000a900460ff16155b15610bc657610bc58261176a565b5b505050565b6000602052806000526040600020600091509050806000018054600181600116156101000203166002900480601f016020809104026020016040519081016040528092919081815260200182805460018160011615610100020316600290048015610c775780601f10610c4c57610100808354040283529160200191610c77565b820191906000526020600020905b815481529060010190602001808311610c5a57829003601f168201915b505050505090806001018054600181600116156101000203166002900480601f016020809104026020016040519081016040528092919081815260200182805460018160011615610100020316600290048015610d155780601f10610cea57610100808354040283529160200191610d15565b820191906000526020600020905b815481529060010190602001808311610cf857829003601f168201915b505050505090806002018054600181600116156101000203166002900480601f016020809104026020016040519081016040528092919081815260200182805460018160011615610100020316600290048015610db35780601f10610d8857610100808354040283529160200191610db3565b820191906000526020600020905b815481529060010190602001808311610d9657829003601f168201915b505050505090806003018054600181600116156101000203166002900480601f016020809104026020016040519081016040528092919081815260200182805460018160011615610100020316600290048015610e515780601f10610e2657610100808354040283529160200191610e51565b820191906000526020600020905b815481529060010190602001808311610e3457829003601f168201915b505050505090806004018054600181600116156101000203166002900480601f016020809104026020016040519081016040528092919081815260200182805460018160011615610100020316600290048015610eef5780601f10610ec457610100808354040283529160200191610eef565b820191906000526020600020905b815481529060010190602001808311610ed257829003601f168201915b5050505050908060050160009054906101000a900473ffffffffffffffffffffffffffffffffffffffff16905086565b3373ffffffffffffffffffffffffffffffffffffffff1660008083815260200190815260200160002060050160009054906101000a900473ffffffffffffffffffffffffffffffffffffffff1673ffffffffffffffffffffffffffffffffffffffff16141515610f8e57600080fd5b60008082815260200190815260200160002060008082016000610fb191906118f0565b600182016000610fc191906118f0565b600282016000610fd191906118f0565b600382016000610fe191906118f0565b600482016000610ff191906118f0565b6005820160006101000a81549073ffffffffffffffffffffffffffffffffffffffff0219169055505050565b611025611938565b60c0604051908101604052808681526020018581526020018481526020018381526020018781526020013373ffffffffffffffffffffffffffffffffffffffff16815250905060026000815480929190600101919050555080600080600254815260200190815260200160002060008201518160000190805190602001906110ae929190611985565b5060208201518160010190805190602001906110cb929190611985565b5060408201518160020190805190602001906110e8929190611985565b506060820151816003019080519060200190611105929190611985565b506080820151816004019080519060200190611122929190611985565b5060a08201518160050160006101000a81548173ffffffffffffffffffffffffffffffffffffffff021916908373ffffffffffffffffffffffffffffffffffffffff160217905550905050505050505050565b61117d611938565b611185611a05565b3373ffffffffffffffffffffffffffffffffffffffff1660008087815260200190815260200160002060050160009054906101000a900473ffffffffffffffffffffffffffffffffffffffff1673ffffffffffffffffffffffffffffffffffffffff161415156111f457600080fd5b60008086815260200190815260200160002060c06040519081016040529081600082018054600181600116156101000203166002900480601f0160208091040260200160405190810160405280929190818152602001828054600181600116156101000203166002900480156112ab5780601f10611280576101008083540402835291602001916112ab565b820191906000526020600020905b81548152906001019060200180831161128e57829003601f168201915b50505050508152602001600182018054600181600116156101000203166002900480601f01602080910402602001604051908101604052809291908181526020018280546001816001161561010002031660029004801561134d5780601f106113225761010080835404028352916020019161134d565b820191906000526020600020905b81548152906001019060200180831161133057829003601f168201915b50505050508152602001600282018054600181600116156101000203166002900480601f0160208091040260200160405190810160405280929190818152602001828054600181600116156101000203166002900480156113ef5780601f106113c4576101008083540402835291602001916113ef565b820191906000526020600020905b8154815290600101906020018083116113d257829003601f168201915b50505050508152602001600382018054600181600116156101000203166002900480601f0160208091040260200160405190810160405280929190818152602001828054600181600116156101000203166002900480156114915780601f1061146657610100808354040283529160200191611491565b820191906000526020600020905b81548152906001019060200180831161147457829003601f168201915b50505050508152602001600482018054600181600116156101000203166002900480601f0160208091040260200160405190810160405280929190818152602001828054600181600116156101000203166002900480156115335780601f1061150857610100808354040283529160200191611533565b820191906000526020600020905b81548152906001019060200180831161151657829003601f168201915b505050505081526020016005820160009054906101000a900473ffffffffffffffffffffffffffffffffffffffff1673ffffffffffffffffffffffffffffffffffffffff1673ffffffffffffffffffffffffffffffffffffffff1681525050915061010060405190810160405280836080015181526020018360a0015173ffffffffffffffffffffffffffffffffffffffff168152602001841515815260200185815260200160001515815260200160206040519081016040528060008152508152602001600073ffffffffffffffffffffffffffffffffffffffff16815260200160008152509050600360008154809291906001019190505550806001600060035481526020019081526020016000206000820151816000019080519060200190611660929190611985565b5060208201518160010160006101000a81548173ffffffffffffffffffffffffffffffffffffffff021916908373ffffffffffffffffffffffffffffffffffffffff16021790555060408201518160010160146101000a81548160ff0219169083151502179055506060820151816002015560808201518160030160006101000a81548160ff02191690831515021790555060a082015181600401908051906020019061170e929190611985565b5060c08201518160050160006101000a81548173ffffffffffffffffffffffffffffffffffffffff021916908373ffffffffffffffffffffffffffffffffffffffff16021790555060e082015181600601559050505050505050565b6001600082815260200190815260200160002060040160008083815260200190815260200160002060040190805460018160011615610100020316600290046117b4929190611a7b565b506001600082815260200190815260200160002060050160009054906101000a900473ffffffffffffffffffffffffffffffffffffffff1660008083815260200190815260200160002060050160006101000a81548173ffffffffffffffffffffffffffffffffffffffff021916908373ffffffffffffffffffffffffffffffffffffffff160217905550600180600083815260200190815260200160002060030160006101000a81548160ff02191690831515021790555050565b828054600181600116156101000203166002900490600052602060002090601f016020900481019282601f106118b157805160ff19168380011785556118df565b828001600101855582156118df579182015b828111156118de5782518255916020019190600101906118c3565b5b5090506118ec9190611b02565b5090565b50805460018160011615610100020316600290046000825580601f106119165750611935565b601f0160209004906000526020600020908101906119349190611b02565b5b50565b60c0604051908101604052806060815260200160608152602001606081526020016060815260200160608152602001600073ffffffffffffffffffffffffffffffffffffffff1681525090565b828054600181600116156101000203166002900490600052602060002090601f016020900481019282601f106119c657805160ff19168380011785556119f4565b828001600101855582156119f4579182015b828111156119f35782518255916020019190600101906119d8565b5b509050611a019190611b02565b5090565b6101006040519081016040528060608152602001600073ffffffffffffffffffffffffffffffffffffffff1681526020016000151581526020016000815260200160001515815260200160608152602001600073ffffffffffffffffffffffffffffffffffffffff168152602001600081525090565b828054600181600116156101000203166002900490600052602060002090601f016020900481019282601f10611ab45780548555611af1565b82800160010185558215611af157600052602060002091601f016020900482015b82811115611af0578254825591600101919060010190611ad5565b5b509050611afe9190611b02565b5090565b611b2491905b80821115611b20576000816000905550600101611b08565b5090565b905600a165627a7a72305820d06c4fcdb87693442b934df9a34bf4017f09d84c466b4070db9910e0b26738830029",
  "source": "pragma solidity ^0.4.23;\r\n\r\ncontract Teleplaats{\r\n    mapping (uint => Phone) public phones;\r\n    mapping (uint => Order) public orders;\r\n\r\n    uint public phoneid;\r\n    uint public orderid;\r\n\r\n    struct Phone {\r\n        string IMEI;\r\n        string model;\r\n        string brand;\r\n        string state;\r\n        string username;\r\n        address ownerAddr;\r\n    }\r\n\r\n    struct User{\r\n        string username;\r\n        address userAddr;\r\n    }\r\n\r\n    struct Bet{\r\n        //User user; User Variables under here\r\n        string username;\r\n        address userAddr;\r\n        uint price;\r\n        bool isBet;\r\n    }\r\n\r\n    struct Order{\r\n        //Phone phone; Phone variables under here\r\n        //User owner;\r\n        string ownerUsername;\r\n        address ownerAddr;\r\n        bool isBet;\r\n        uint price;\r\n        bool isSold;\r\n        //Bet bet; Bet Variables under here\r\n        string betUsername;\r\n        address betAddr;\r\n        uint betPrice;\r\n    }\r\n\r\n    function sellPhone(string sellerName, string IMEI, string model, string brand, string state, uint price, bool isBet) public{\r\n        addPhone(sellerName, IMEI, model, brand, state);\r\n        addOrder(phoneid, price, isBet);\r\n    }\r\n\r\n    function addPhone(string sellerName, string IMEI, string model, string brand, string state) private{\r\n        Phone memory phone = Phone(IMEI, model, brand, state, sellerName, msg.sender);\r\n\r\n        phoneid++;\r\n\r\n        phones[phoneid] = phone;\r\n    }\r\n\r\n    function removePhone(uint id) public{\r\n        require(phones[id].ownerAddr == msg.sender);\r\n        delete phones[id];\r\n    }\r\n\r\n    function addOrder(uint id, uint price, bool isBet) private {\r\n        require(phones[id].ownerAddr == msg.sender);\r\n\r\n        Phone memory phone = phones[id];\r\n\r\n        //Bet memory placeholderBet;\r\n\r\n        //User memory user = User(phone.username, phone.ownerAddr);\r\n\r\n        Order memory order = Order(phone.username, phone.ownerAddr, isBet, price, false, \"\", address(0), 0);\r\n\r\n        orderid++;\r\n\r\n        orders[orderid] = order;\r\n    }\r\n\r\n    function buyOrder(string buyerName, uint id, uint price) public {\r\n        require(orders[id].ownerAddr != msg.sender);\r\n\r\n        //User memory buyer = User(buyerName, msg.sender);\r\n        //Bet memory bet = Bet(buyerName, msg.sender, price, orders[id].isBet);\r\n        if(price > orders[id].betPrice){\r\n            orders[id].betUsername = buyerName;\r\n            orders[id].betAddr = msg.sender;\r\n            orders[id].betPrice = price;\r\n        }\r\n\r\n        if(price >= orders[id].price && !orders[id].isBet){\r\n            changeOwner(id);\r\n        }\r\n    }\r\n\r\n    function changeOwner(uint id) private{\r\n        phones[id].username = orders[id].betUsername;\r\n        phones[id].ownerAddr = orders[id].betAddr;\r\n        orders[id].isSold = true;\r\n    }\r\n\r\n    function acceptBet(uint id) public{\r\n        require(orders[id].ownerAddr == msg.sender);\r\n\r\n        if(orders[id].isBet && orders[id].betPrice > 0){\r\n            changeOwner(id);\r\n        }\r\n    }\r\n}",
  "sourcePath": "C:\\Users\\justi\\Desktop\\Teleplaats\\contracts\\Teleplaats.sol",
  "compiler": {
    "name": "solc",
    "version": "0.4.24+commit.e67f0147.Emscripten.clang"
  },
  "schemaVersion": "2.0.1",
  "updatedAt": "2019-01-10T10:19:18.597Z"
}